:030000000228F5DE
:0C28F500787FE4F6D8FD75813302293CA1
:0330D7000211EDF6
:0730D000AD077F010230B6DD
:0330DA00AF992289
:03000B00022E952D
:102E9500C0E0C0D075D000C000D3782AE6940018F1
:102EA500E6940040070806E618700106D3782AE67E
:102EB500940518E69400400B782C76007829760066
:0A2EC500087600D000D0D0D0E03233
:1030A600120F8F12000EE4FF12303012228F80FBB7
:072A560044021B0000000018
:102FDB00EF4E601A900213E0FCA3E0FDED1D7001B3
:0E2FEB001C144C70F7EF1F70011E144E70E6A0
:012FF90022B5
:0830930090013BE0FEA3E0FF09
:0A309B00EF1FAC0670011E4C70F62A
:0130A5002208
:102FB500900213E0FCA3E0FD1207CBE47B83FAF952
:102FC500F812060C900217120748900217E0C31377
:062FD500FEA3E013FF2241
:102F3600900216E06599600AE599F0E4900215F0B2
:102F46008006900215E004F0900215E0C394E9743F
:0C2F560080948040060075C760000022D7
:0B2ABA00900000EBF0A3EAF0A3E9F0AD
:102AC5009000C17401F0A37400F0A37403F09000AA
:102AD50000E0F9A3E0FAA3E090013DC9F0A3EAF014
:102AE500A3E9F09000C1E0F9A3E0FAA3E09001406A
:102AF500C9F0A3EAF0A3E9F07B017A00792B122D46
:102B0500029000C1E4F0A3F0A3F07B017A00792BD9
:052B15007F01022ECF3C
:10250600EF14601614602C14604D14606C14700384
:1025160002259A240560030225BD90FE02E0547E42
:102526004480F0E030E0F390FE00E054FCF090FED2
:1025360003807A90FE04E0547E4480F0E030E0F3BD
:1025460090FE00E054FC4403F090FE02E4F090FE9E
:1025560008F090FE03F02290FE08E0547E4480F0DE
:10256600E030E0F390FE00E054FC4402F090FE04FC
:10257600E4F090FE02F0A3F02290FE03E0543E4405
:1025860080F0E030E0F390FE00E054FC4401F0906F
:10259600FE02801990FE03E0543E44C0F0E030E0B5
:1025A600F390FE00E054FC4401F090FE02E4F0904B
:0825B600FE08F090FE04F02283
:0C30C400EF90FE01700304F022EFF022F8
:100F8F0043BA80AF9FE4FCFDFEC004A905AA06ABDF
:100F9F000778FBE6FFD000C3EF9BFFEE9AFEED99BB
:100FAF00FDEC98FCE47BF07AD2F9F812060CC3E45E
:100FBF009FFF74369EFE746E9DFD74019CFC900025
:100FCF00C41207489000C4E0FCA3E0FDA3E0FEA319
:100FDF00E0FFC00790FE01E0FBE4FAF9F8D007123A
:100FEF0006979000C41207487FC07EF67D577C009D
:100FFF009000C4E0F8A3E0F9A3E0FAA3E0FBC3126A
:10100F000737500D90021B12075400546000021155
:10101F00BE7FC07E267D827C009000C4E0F8A3E0F6
:10102F00F9A3E0FAA3E0FBC3120737500D90021BA0
:10103F00120754005B8D800211BE7F807EED7DAF65
:10104F007C009000C4E0F8A3E0F9A3E0FAA3E0FB72
:10105F00C3120737500D90021B12075400A8C0008F
:10106F000211BE7F807E2D7DE87C009000C4E0F8E9
:10107F00A3E0F9A3E0FAA3E0FBC3120737500D90EA
:10108F00021B12075400B71B000211BE7F807E3671
:10109F007D257C019000C4E0F8A3E0F9A3E0FAA35A
:1010AF00E0FBC3120737500D90021B1207540119B2
:1010BF0040000211BE7F807E567D417C019000C4AE
:1010CF00E0F8A3E0F9A3E0FAA3E0FBC3120737505F
:1010DF000D90021B12075401312D000211BE7F002B
:1010EF007EDB7D5F7C019000C4E0F8A3E0F9A3E014
:1010FF00FAA3E0FBC3120737500D90021B120754DF
:10110F00015180000211BE7F607E197D857C0190A8
:10111F0000C4E0F8A3E0F9A3E0FAA3E0FBC31207D1
:10112F0037500D90021B120754016E36000211BE8C
:10113F007F207EE07DB27C019000C4E0F8A3E0F94F
:10114F00A3E0FAA3E0FBC3120737500C90021B1267
:10115F000754019BFCC080577FE07EA67DE07C0199
:10116F009000C4E0F8A3E0F9A3E0FAA3E0FBC312F8
:10117F000737500C90021B12075401C9C380802FF0
:10118F007F607E2B7DFF7C019000C4E0F8A3E0F927
:10119F00A3E0FAA3E0FBC312073790021B5009121A
:1011AF00075401FA4000800712075402160EC0E4DC
:1011BF007B107A27F9F890021BE0FCA3E0FDA3E077
:1011CF00FEA3E0FF120697900213EEF0A3EFF0E4F8
:0D11DF00900216F0900215F0122F06D2AF0C
:0111EC0022E0
:0B2441009000CBEBF0A3EAF0A3E9F061
:10244C007F647E00122FB590013BEEF0A3EFF0906D
:10245C0001387401F0A37400F0A374CEF09000CB9B
:10246C00E0F9A3E0FAA3E090013DC9F0A3EAF0A3E0
:10247C00E9F0900138E0F9A3E0FAA3E0900140C93B
:10248C00F0A3EAF0A3E9F07B017A0079F8122D02AF
:10249C009000F6EEF0A3EFF0900138E4F0A3F0A377
:1024AC00F07FF47E01122FDBE4FBFAD39000F7E00F
:1024BC009B9000F6E09A40E9D2B1C2B1123093740D
:1024CC00F82BF58274003AF583E0F9E4FDEDC39442
:1024DC0008748094805014E930E004D2B18002C2B8
:1024EC00B1E9C313F91230930D80E2D2B1123093DB
:0A24FC001230930BBB00010A80B1FF
:0B271A0090021FEBF0A3EAF0A3E9F02F
:10272500E4FFFE900225F0A3F0A3F0A3F090021FB2
:10273500E0FBA3E0FAA3E0F91205356077900228E3
:10274500E004F07006900227E004F0900222E0FB1E
:10275500A3E0FAA3E0F98F828E8312054EFD900265
:102765001FE0FBA3E0FAA3E0F9120535B505070F55
:10277500BF00010E8012E4FEFF900227E0FDA3E0FA
:10278500900225CDF0A3EDF0900220E475F0011242
:1027950005C1900222E0FBA3E0FAA3E0F98F828E47
:1027A5008312054EFD3395E04D7082900225E0FEC3
:0827B500A3E0FF227EFF7FFF7D
:0127BD0022F9
:1021A700E4900237F0900239F0900238F09002384C
:1021B700E0C3940A748094804003022289E07E0081
:1021C7002DF582EE3CF58312054EFF3395E0FEC3F5
:1021D700EF9430EE648094804052D3EF9437EE64EE
:1021E7008094805047900239E004F0E06401701950
:1021F700900238E07E002DF582EE3CF58312054E05
:1022070024D0C454F0900237F0900239E064027091
:102217001B900238E07E002DF582EE3CF583120517
:102227004E24D0FF900237E04FFFF022900238E0B3
:102237007E002DF582EE3CF58312054EFF3395E0C7
:10224700FEC3EF9438EE648094804011D3EF943945
:10225700EE648094805006900239E004F0900238D2
:10226700E07E002DF582EE3CF58312054EFF642CCF
:102277006010EF3395E04F6009900238E004F002F8
:0722870021B4900237E0FFD3
:01228E00222D
:08237200900232ECF0A3EDF043
:10237A00E4A3F0A3F0A3F0900236E0FFC394147430
:10238A008094804003022438900233E02FFF9002A9
:10239A0032E034008F82F58312054EFF3395E0FE5A
:1023AA00C3EF9430EE648094804051D3EF9439EEB9
:1023BA00648094805046900234E0FEA3E0FF7C00E3
:1023CA007D0A1205AF900234EEF0A3EFF0A3E0FF0E
:1023DA00900233E02FFF900232E034008F82F583BF
:1023EA0012054EFF3395E0FEEF24D0FFEE34FFFED8
:1023FA00900235E02FF0900234E03EF0900236E091
:10240A00FF900233E02FFF900232E034008F82F512
:10241A008312054EFF642C6015EF642E6010EF33B3
:10242A0095E04F6009900236E004F00223819002A1
:06243A0034E0FEA3E0FF08
:012440002279
:101C6C00900201EBF0A3EAF0A3E9F0A3ECF0A3EDF2
:011C7C00F077
:101C7D00E490020DF0A3F0A3F0A3F0A3F0A3F09075
:101C8D00020BF0A3F0900204E0FEA3E0FF90020B24
:101C9D00E0FCA3E0FDC39FEC9E4003021D3C9002BF
:101CAD0006E0FBA3E0FAA3E0F990020DE0FEA3E04D
:101CBD00F5828E8312054EFF900201E0FBA3E0FA40
:101CCD00A3E0F98D828C8312054EB5073390020E79
:101CDD00E004F0700690020DE004F0900209E0FEC1
:101CED00A3E0FF90020DE0B50631A3E0B5072C90FF
:101CFD00020BE0FFA3E0900211CFF0A3EFF0802FD5
:101D0D00E490020DF0A3F090020CE02401FE90028D
:101D1D000BE0340090020FF0A3CEF090020CE00423
:101D2D00F06003021C9290020BE004F0021C9290F2
:101D3D000211E0FEA3E0FF90020FE0FCA3E0FDD353
:101D4D009FEC9E504490020BECF0A3EDF09002112D
:101D5D00E0FEA3E0FF90020BE0FCA3E0FDC39FECCF
:101D6D009E5023900201E0FBA3E0FAA3E0F98D82DF
:101D7D008C83E412058D90020CE004F070CF90027C
:0B1D8D000BE004F080C77F01227F0004
:011D98002228
:1017C9006770696F5F757070756C6C283C44253063
:1017D90032583E2C2564293BB2BBB4E6D4DAB8C3EF
:1017E900494F0D0A006770696F5F757070756C6C91
:1017F900283C44253032583E2C31293BB2BBB4E653
:10180900D4DAB8C3494F0D0A006770696F5F757004
:1018190070756C6C283C44253032583E2C30293B7D
:10182900B2BBB4E6D4DAB8C3494F0D0A0067706990
:101839006F5F6D6F6465283C44253032583E2C2516
:1018490064293BB2BBB4E6D4DAB8C3494F0D0A00E8
:101859006770696F5F6D6F64652844253032582C55
:101869003C25643E293BB2BBB4E6D4DAB8C3C4A371
:10187900CABD0D0A006770696F5F77726974652860
:101889003C25643E2C2564293BB2BBB4E6D4DAB8C6
:10189900C350BFDA0D0A006770696F5F72656164D2
:1018A900283C5025643E293BB2BBB4E6D4DAB8C320
:1018B90050BFDA0D0A006770696F5F6F7574283C55
:1018C90044253032583E2C2564293BB2BBB4E6D4BA
:1018D900DAB8C3494F0D0A006770696F5F6F757495
:1018E900283C44253032583E2C31293BB2BBB4E662
:1018F900D4DAB8C3494F0D0A006770696F5F6F7515
:1019090074283C44253032583E2C30293BB2BBB4B4
:10191900E6D4DAB8C3494F0D0A006770696F5F6989
:101929006E283C44253032583E293BB2BBB4E6D43C
:10193900DAB8C3494F0D0A006770696F5F746F6742
:10194900676C65283C44253032583E293BB2BBB40C
:10195900E6D4DAB8C3494F0D0A0001020408102081
:021969004080BC
:0A1D9900900241EDF0900240EFF0DF
:101DA30064887003021EAAE0FF54F0F50DEF540F90
:101DB300FF90196393F50ED3EF94077480948040DA
:101DC300237BFF7A1779C9900240E0FF9000CEE4AD
:101DD300F0A3EFF0900241E0FF9000D0E4F0A3EF16
:101DE300F0122441900241E06055E50D24F060219A
:101DF30024F0602224F0602324F0602424F0602582
:101E030024F0602624F060272470702B90FE10804D
:101E13002190FE11801C90FE12801790FE138012F9
:101E230090FE14800D90FE15800890FE168003909E
:101E3300FE17E0450EF0227BFF7A1779EE8058E516
:101E43000D24F0602124F0602224F0602324F0604C
:101E53002424F0602524F0602624F0602724707089
:101E63003090FE10802190FE11801C90FE1280178E
:101E730090FE13801290FE14800D90FE1580089042
:101E8300FE16800390FE17E0FFE50EF4FEEF5EF012
:101E9300227BFF7A187912900240E0FF9000CEE493
:071EA300F0A3EFF01224414F
:011EAA002215
:0A0C7B009000CAEDF09000C9EFF000
:100C850064887003020F8EE0FF54F0F50DEF540FEA
:100C9500FF90196393F50ED3EF9407748094804009
:100CA500237BFF7A1879369000C9E0FF9000CEE4E7
:100CB500F0A3EFF09000CAE0FF9000D0E4F0A3EFBE
:100CC500F0122441E50D24F0602124F0602224F087
:100CD500602324F0602424F0602524F0602624F0AD
:100CE500602724707028E4F50D8046750D0180415C
:100CF500750D02803C750D038037750D04803275C6
:100D05000D05802D750D068028750D0780237BFF49
:100D15007A1879369000C9E0FF9000CEE4F0A3EF91
:100D2500F09000CAE0FF9000D0E4F0A3EFF01224A9
:100D3500419000CAE0FFD3940374809480401C7BEB
:100D4500FF7A1879599000C9E0FD9000CEE4F0A330
:100D5500EDF0A3E4F0A3EFF0122441E50D7040900F
:100D650000CAE0FF7E007007E50EF452935294EF3F
:100D750064014E7009E50E4293E50EF4529490001D
:100D8500CAE064027008E50E4293E50E42949000B5
:100D9500CAE064037009E50EF45293E50E4294E54A
:100DA5000D640170409000CAE0FF7E007007E50EFB
:100DB500F452915292EF64014E7009E50E4291E5AD
:100DC5000EF452929000CAE064027008E50E42915A
:100DD500E50E42929000CAE064037009E50EF452F4
:100DE50091E50E4292E50D640270409000CAE0FF65
:100DF5007E007007E50EF452955296EF64014E7031
:100E050009E50E4295E50EF452969000CAE064029B
:100E15007008E50E4295E50E42969000CAE064031F
:100E25007009E50EF45295E50E4296E50D640370E2
:100E3500409000CAE0FF7E007007E50EF452B15203
:100E4500B2EF64014E7009E50E42B1E50EF452B2FF
:100E55009000CAE064027008E50E42B1E50E42B2A8
:100E65009000CAE064037009E50EF452B1E50E4244
:100E7500B2E50D640470409000CAE0FF7E00700783
:100E8500E50EF452B352B4EF64014E7009E50E421B
:100E9500B3E50EF452B49000CAE064027008E50EA2
:100EA50042B3E50E42B49000CAE064037009E50E52
:100EB500F452B3E50E42B4E50D640570409000CAE6
:100EC500E0FF7E007007E50EF452C952CAEF6401D7
:100ED5004E7009E50E42C9E50EF452CA9000CAE00B
:100EE50064027008E50E42C9E50E42CA9000CAE0E8
:100EF50064037009E50EF452C9E50E42CAE50D64B6
:100F05000670409000CAE0FF7E007007E50EF452BF
:100F1500CB52CCEF64014E7009E50E42CBE50EF4E1
:100F250052CC9000CAE064027008E50E42CBE50E93
:100F350042CC9000CAE064037009E50EF452CBE59B
:100F45000E42CCE50D640770409000CAE0FF7E00BC
:100F55007007E50EF452E152E2EF64014E7009E5C7
:100F65000E42E1E50EF452E29000CAE06402700818
:100F7500E50E42E1E50E42E29000CAE06403700925
:090F8500E50EF452E1E50E42E232
:010F8E002240
:102B1A00EFB40900503A902B27F8282873022B4269
:102B2A00022B45022B48022B4B022B4E022B510241
:102B3A002B54022B57022B738D80228D90228DA04D
:102B4A00228DB0228DC0228DC8228DE8228DF822D6
:102B5A007BFF7A18797E9000CEE4F0A3EFF0AF0500
:0A2B6A00A3E4F0A3EFF012244122CF
:102B7400EFB40900503D902B81F8282873022B9C58
:102B8400022B9F022BA2022BA5022BA8022BAB0225
:102B94002BAE022BB1022BB4AF8022AF9022AFA098
:102BA40022AFB022AFC022AFC822AFE822AFF822D2
:102BB4007FFF227BFF7A1879A09000CEE4F0A3EF88
:072BC400F01224417FFF2203
:0A1EAB00900243EDF0900242EFF0C8
:101EB50064887003021FB9E0FF54F0F50DEF540F6D
:101EC500FF90196393F50ED3EF94077480948040C7
:101ED500237BFF7A1879BF900242E0FF9000CEE4A1
:101EE500F0A3EFF0900243E0FF9000D0E4F0A3EF01
:101EF500F0122441900243E06052E50D24F0602188
:101F050024F0602224F0602324F0602424F060256E
:101F150024F0602624F0602724707028E50E4280A6
:101F250022E50E429022E50E42A022E50E42B022A5
:101F3500E50E42C022E50E42C822E50E42E822E542
:101F45000E42F8227BFF7A1879E18058E50D24F0DE
:101F5500602224F0602424F0602624F0602824F018
:101F6500602A24F0602C24F0602E24707030E50E79
:101F7500F4528022E50EF4529022E50EF452A0228E
:101F8500E50EF452B022E50EF452C022E50EF452ED
:101F9500C822E50EF452E822E50EF452F8227BFF42
:101FA5007A197902900242E0FF9000CEE4F0A3EFA7
:041FB500F0122441C1
:011FB9002205
:05267000900244EFF0B0
:1026750064887002FF22900244E0FF54F0F50DEFEC
:10268500540FFF90196393F50ED3EF94077480945C
:102695008040167BFF7A197923900244E0FF900071
:1026A500CEE4F0A3EFF0122441E50D24F0602124DF
:1026B500F0602224F0602324F0602424F0602524B7
:1026C500F0602624F060272470702885800F8039FB
:1026D50085900F803485A00F802F85B00F802A85C7
:1026E500C00F802585C80F802085E80F801B85F8E1
:1026F5000F80167BFF7A197923900244E0FF900042
:10270500CEE4F0A3EFF0122441E50F550E60037FF0
:0427150001227F001E
:01271900229D
:0527BE00900245EFF060
:1027C3006488700302285AE0FF54F0F50DEF540FAC
:1027D300FF90196393F50ED3EF94077480948040B0
:1027E300167BFF7A197941900245E0FF9000CEE411
:1027F300F0A3EFF0122441E50D24F0602124F060F2
:102803002224F0602324F0602424F0602524F06067
:102813002624F0602724707028E50E628022E50EDE
:10282300629022E50E62A022E50E62B022E50E62FE
:10283300C022E50E62C822E50E62E822E50E62F8C8
:10284300227BFF7A197941900245E0FF9000CEE4A4
:07285300F0A3EFF012244195
:01285A00225B
:102D4C00EFB40800503E902D59F8282873022D71CD
:102D5C00022D75022D79022D7D022D81022D850209
:102D6C002D89022D8DED628022ED629022ED62A004
:102D7C0022ED62B022ED62C022ED62C822ED62E863
:052D8C0022ED62F822B7
:10285B00A907EB6048E9B4080040030228F490286C
:10286B0070F828287302288802288C0228900228E6
:10287B009402289802289C0228A00228A4ED4280EA
:10288B0022ED429022ED42A022ED42B022ED42C059
:10289B0022ED42C822ED42E822ED42F822E9B408CB
:1028AB000050469028B5F82828730228CD0228D26C
:1028BB000228D70228DC0228E10228E60228EB02D4
:1028CB0028F0EDF4528022EDF4529022EDF452A058
:1028DB0022EDF452B022EDF452C022EDF452C82294
:0A28EB00EDF452E822EDF452F82259
:102BCB00EFB409005045902BD8F8282873022BF34B
:102BDB00022BF7022BFB022BFF022C03022C07020A
:102BEB002C0B022C0F022C13AE80801FAE90801B7F
:102BFB00AEA08017AEB08013AEC0800FAEC8800BF6
:102C0B00AEE88007AEF880037F0122EE5D60037FA4
:042C1B0001227F0013
:012C1F002292
:08000300303136371617434473
:102F060075985053873F538EDEE4FD7F01122C20C7
:102F16009000C91207540001C2007F01122DD6434A
:102F26008E4053890FC2ABC28FD28EC209D2AC2259
:102C20009000C8EDF0EF1470449000C8E0FF54C06D
:102C3000FEE5A2543F4EF5A2EFC41313540325E062
:102C40002403F582E43400F583E493FFE4FD120CE1
:102C50007B9000C8E0C41313540325E02404F582DC
:0E2C6000E43400F583E493FF7D03120C7B2225
:052DD6009000C8EFF0C1
:102DDB00E47B04FAF9F890021BE0FCA3E0FDA3E00E
:102DEB00FEA3E0FF1206979000C9E0F8A3E0F9A359
:102DFB00E0FAA3E0FB120697C3E49FFFE49EFE906C
:0B2E0B0000C8E01470058F8BEEF58D01
:012E16002299
:0E30B600EF147009AF058F99D2092009FD2291
:102FFA00EF147016EB6006D29BD29B8004C29BC270
:0B300A009BAF058F99D2092009FD2221
:102ECF0090023AEBF0A3EAF0A3E9F0AE0790023AD2
:102EDF00E0FBA3E0FAA3E0F91205356019AF069005
:102EEF00023AA3E475F0011205D7A9F0FA120535DD
:072EFF00FD1230B680D7225E
:0E29F000900173EFF0A3EBF0A3EAF0A3E9F07F
:1029FE009001BF7401F0A37401F0A37477F09001FD
:102A0E0074E0F9A3E0FAA3E090013DC9F0A3EAF067
:102A1E00A3E9F09001BFE0F9A3E0FAA3E090014032
:102A2E00C9F0A3EAF0A3E9F07B017A01799F122D98
:102A3E00029001BFE4F0A3F0A3F0900173E0FF7BDE
:082A4E00017A01799F022ECFED
:03002300022C6E3E
:102C6E00C0E0C0F0C083C082C0D075D000C000C02C
:102C7E0001C002C003C004C005C006C007309808DA
:102C8E00C2981230D7122F36309904C299C209D089
:102C9E0007D006D005D004D003D002D001D000D08A
:0A2CAE00D0D082D083D0F0D0E03205
:101FBA0074696D65725F7374617274283C25643E3E
:101FCA00293BB4EDCEF3B5C449440D0A0074696DDA
:101FDA0065725F73746F70283C25643E293BB4EDCB
:101FEA00CEF3B5C449440D0A0074696D65725F6F1A
:101FFA007574283C25643E2C31293BB4EDCEF3B5EB
:10200A00C449440D0A0074696D65725F6F7574285E
:10201A003C25643E2C30293BB4EDCEF3B5C449448B
:10202A000D0A00C7EBCAE4C8EBB4F3D3DA30757310
:10203A002CD0A1D3DA25757573B5C4CAB1BCE40D29
:10204A000A0074696D65725F7365745F74696D65A2
:10205A00725F6D6F6465283C25643E2C2575293BAB
:10206A00B4EDCEF3B5C449440D0A0074696D6572C6
:10207A005F7365745F76616C7565283C25643E2CD8
:10208A002575293BB4EDCEF3B5C449440D0A007455
:10209A00696D65725F7365745F76616C7565283CFE
:1020AA0025643E293BB4EDCEF3B5C449440D0A007C
:10303000EF7005C28DD28C227BFF7A1F79BA900087
:0A304000CEE4F0A3EFF012244122C9
:10306400EF7003C28C227BFF7A1F79D79000CEE4E5
:08307400F0A3EFF01224412249
:102E1700900246EFF0ED6012E07007438F017D03EB
:102E270080137BFF7A1F79F38016900246E0700AC1
:102E3700538FFEE4FD7F35020C7B7BFF7A207910F0
:102E4700900246E0FF9000CEE4F0A3EFF012244199
:012E57002258
:10000E00E58E547F4480F58E5389F0758A40758C49
:04001E00A2D2A9229F
:0B15F500900229EFF0A3ECF0A3EDF052
:1016000090021BE0FCA3E0FDA3E0FEA3E0FFE412D8
:1016100001CC7B007A247974784912012FA804A99F
:1016200005AA06AB077F007EFF7D7F7C4712012F56
:1016300012020A90022EEEF0A3EFF07F007E1B7DD7
:10164000B77C0090021BE0F8A3E0F9A3E0FAA3E066
:10165000FBD3120737500A74FF900230F0A3F080DA
:101660003B90021BE0FCA3E0FDA3E0FEA3E0FFE44F
:101670001201CC7B007A1B7937784B12012FA8041A
:10168000A905AA06AB077F007EFF7D7F7C4712017C
:101690002F12020A900230EEF0A3EFF090022EE03B
:1016A000FEA3E0FF90022AE0FCA3E0FDD39FEC9EA6
:1016B0005010ED9400EC94004008A3E4F0A304F073
:1016C0008040900230E0FEA3E0FFD3ED9FEC9E50FF
:1016D0001990022BE0940090022AE09400400B90B5
:1016E000022CE4F0A3740CF080187BFF7A20792D93
:1016F000900230E0FFA3E09000CECFF0A3EFF01215
:101700002441900229E060030217A390022CE070AC
:1017100004A3E064017017438E8090021BE0FCA3D9
:10172000E0FDA3E0FEA3E0FFE41201CC802B9002D9
:101730002CE07004A3E0640C7059538E7F90021B60
:10174000E0FCA3E0FDA3E0FEA3E0FFE41201CCE493
:10175000FBFA7940784112012F7B007A2479747862
:101760004912012FC004C005C006C00790022AE03C
:10177000FCA3E0FDE41201D1D003D002D001D000DF
:1017800012002612020AC3E49FFFE49E90022CF08E
:10179000A3EFF090022CE0FEA3E0F58AEEF58C5367
:1017A00089FB227BFF7A20794C900229E0FF900090
:1017B000CEE4F0A3EFF090022AE0FFA3E09000D087
:0817C000CFF0A3EFF012244169
:0117C80022FE
:102F6200900247EFF070068D8AECF58C227BFF7A97
:102F7200207975900247E0FF9000CEE4F0A3EFF0D5
:0C2F8200AF05A3ECF0A3EFF012244122F5
:052E580090023DEFF0C7
:102E5D00E4A3F0A3F0EF7011AF8CEFFFAD8AED900E
:102E6D00023ECFF0A3EFF080167BFF7A2079999088
:102E7D00023DE0FF9000CEE4F0A3EFF0122441906C
:072E8D00023EE0FEA3E0FF9E
:012E9400221B
:102A5D00022FFFFF012C00013301013200012B0079
:102A6D0002260000022D00000224000002290000B1
:102A7D000222FFFF0131000128004301EA12345602
:102A8D00602801C2123456789ABC00000000000084
:102A9D000000000000000000000000000000000029
:0C2AAD000000000000000000000000001D
:082CB800782B76047833E6FF67
:102CC000782FE6F608E66FF6E4FDEDC3940874800D
:102CD0009480502D782FE6FE08E6FF30E013EEC317
:102CE00013FEEF13FFEE64A018F6EF640108F68000
:102CF0000D782FE6C313792FF708E61309F70D8037
:012D0000C909
:012D010022AF
:10304A00EF24FD600F24FE600B14600824F6600470
:0A305A00240F700122EF2480FF22F2
:082981009000C4EEF0A3EFF09A
:102989005407FCED602D9000C4E0FEA3E07803CE6F
:10299900C313CE13D8F924EAF58274013EF583C036
:1029A90083C082E0FFA8047401088002C333D8FC05
:1029B9004F802E9000C4E0FEA3E07803CEC313CE6F
:1029C90013D8F924EAF58274013EF583C083C082E5
:1029D900E0FFAE04A8067401088002C333D8FCF4F2
:0629E9005FD082D083F0F4
:0129EF0022C5
:102D9100EF54079000CCF0EF7803CEC313CE13D8D5
:102DA100F924EAF58274013EF583E0FD7C00900090
:102DB100CCE0FF7E007401A807088005C333CE3341
:102DC100CED8F9FFEE5CFEEF5D4E60047401800128
:042DD100E412057B88
:012DD50022DB
:10307C00EF25E0FFEE33FE74C22FF58274013EF5AE
:07308C0083ECF0A3EDF0223C
:10301500EF25E0FFEE33FE74C22FF58274013EF515
:0B30250083E0FFA3E0CF8FF00205ED79
:1013F90074FF782FF608F6782DE6FE08E6FFC39409
:1014090001EE940050030215BFD3EF94D0EE940778
:1014190040030215BF7826E6FE08E6FFE4FCFDC09E
:1014290004A905AA06AB07782DE6FE08E6FFD00059
:10143900EF2BFFEE3AFEED39FDEC38FCE4FBFA79CF
:1014490001F8C312073750030215967826E6FE08FD
:10145900E6FFEE94004012EF782E26FFEE1836FED6
:10146900D3EF9418EE9400402A782B76047828E676
:1014790070030215F4122CBC7F81122CC07F041258
:101489002CC07833E6FF1230D07F811230D07F0430
:101499000215BA7828E670030215F4782DE6FC08DF
:1014A900E6FDAE047803CEC313CE13D8F99000C578
:1014B900F0ED54076003E004F07826E6FF08E690B3
:1014C90000CACFF0A3EFF0122CBC7F01122CC09000
:1014D90000C5E0FF122CC07833E6FF1230D07F013F
:1014E9001230D09000C5E0FF1230D0E49000C7F070
:1014F9009000C5E0FF9000C7E0C39F40030215E6D6
:10150900E49000C4F0782DE6FE08E6FFC39408EEE7
:1015190094009000C640057408F08002EFF0E49052
:1015290000C8F09000C6E0FF9000C8E0C39F5039A2
:101539009000CAE475F0011205D7AFF0FE7B017A7D
:101549000079C9122D919000C4E0FF9000C8E0FE17
:10155900A3E0FDA806088002C333D8FC4F9000C45D
:10156900F09000C8E004F080BA9000C4E0FF122CAB
:10157900C0E0FF1230D09000C6E0FFC3782EE69F8E
:10158900F618E69400F6A3E004F00214F9782B7635
:10159900027828E66055122CBC7F81122CC07F028C
:1015A900122CC07833E6FF1230D07F811230D07F01
:1015B900021230D08027782B76037828E6602C1227
:1015C9002CBC7F81122CC07F03122CC07833E6FF1C
:1015D9001230D07F811230D07F031230D07830E6BC
:0B15E900FF1230D0782FE6FF1230D048
:0115F40022D4
:10196B0074FF782FF608F6782DE6FE08E6FFC39491
:10197B0001EE94005003021ABED3EF947DEE940057
:10198B004003021ABE7826E6FE08E6FFE4FCFDC023
:10199B0004A905AA06AB07782DE6FE08E6FFD000E2
:1019AB00EF2BFFEE3AFEED39FDEC38FCE4FBFA7958
:1019BB0001F8D31207375003021A957826E6FE0872
:1019CB00E6FFEE94004012EF782E26FFEE1836FE5F
:1019DB00D3EF9414EE9400402A782B76047828E603
:1019EB007003021AF3122CBC7F83122CC07F0412DB
:1019FB002CC07833E6FF1230D07F831230D07F04B7
:101A0B00021AB97828E67003021AF3122CBC7F0372
:101A1B00122CC0782EE625E0FF122CC07833E6FF9F
:101A2B001230D07F031230D0782EE625E0FF123033
:101A3B00D0E49000C6F0A3F09000C6E0FEA3E0FF58
:101A4B00C3782E96EE18965068EF782726FFEE187F
:101A5B0036FE7B017A0079C41230159000C4E0FF8A
:101A6B00122CC0A3E0FF122CC09000C4E0FF123078
:101A7B00D09000C4A3E0FF1230D09000C7E004F078
:101A8B0070B69000C6E004F080AE782B7602782812
:101A9B00E66055122CBC7F83122CC07F02122CC027
:101AAB007833E6FF1230D07F831230D07F021230B2
:101ABB00D08027782B76037828E6602C122CBC7FFD
:101ACB0083122CC07F03122CC07833E6FF1230D068
:101ADB007F831230D07F031230D07830E6FF123084
:081AEB00D0782FE6FF1230D085
:011AF30022D0
:1020BA0074FF782FF608F6782DE6FE08E6FF4E60E4
:1020CA000AEF7002EEF460030221717826E6FE0838
:1020DA00E6FFC3EE94004008EF9418EE9400402601
:1020EA007828E670030221A6122CB87F85122CC02C
:1020FA007F04122CC07833E6FF1230D07F8512306D
:10210A00D07F04022195782DE6FD7826E6FE08E6C2
:10211A00FF1229817828E670030221A6122CBC7FBF
:10212A0005122CC07826E6FF122CC07827E6FF128B
:10213A002CC0782DE6FF122CC0782EE6FF122CC098
:10214A007833E6FF1230D07F051230D07826E6FFCA
:10215A001230D07827E6FF1230D0782DE6FF123001
:10216A00D0782EE6FF8024782B76037828E6602C38
:10217A00122CBC7F85122CC07F03122CC07833E648
:10218A00FF1230D07F851230D07F031230D07830E2
:0D219A00E6FF1230D0782FE6FF1230D02281
:1025BE0074FF782FF608F67826E6FE08E6FFC3EEDF
:1025CE0094004008EF9414EE940040257828E670AD
:1025DE000302266F122CB87F86122CC07F04122C99
:1025EE00C07833E6FF1230D07F861230D07F048061
:1025FE005F7826E6FE08E6FF782DE6FC08E6FD127B
:10260E00307C7828E6605A122CBC7F06122CC078DB
:10261E0026E6FF122CC07827E6FF122CC0782DE696
:10262E00FF122CC0782EE6FF122CC07833E6FF1274
:10263E0030D07F061230D07826E6FF1230D07827C1
:10264E00E6FF1230D0782DE6FF1230D0782EE6FF5E
:10265E001230D07830E6FF1230D0782FE6FF1230ED
:02266E00D02278
:101AF40074FF782FF608F6782DE6FE08E6FFC39407
:101B040001EE94005003021C36D3EF947BEE940054
:101B14004003021C3618E6FE08E6FFE4FCFDC004A0
:101B2400A905AA06AB077826E6FE08E6FFD000EF73
:101B34002BFFEE3AFEED39FDEC38FCE4FBFA7901BB
:101B4400F8D31207375003021C107826E6FE08E685
:101B5400FFEE94004012EF782E26FFEE1836FED3E7
:101B6400EF9414EE940040267828E67003021C6B70
:101B7400122CB87F90122CC07F04122CC07833E64C
:101B8400FF1230D07F901230D07F04021C5AE4F947
:101B94007831E6FFE9C39F5020E925E024EDF58282
:101BA400E43401F583E0FCA3E0FDE9782726FFE4B3
:101BB4001836FE12307C0980D77828E67003021CA0
:101BC4006B122CBC7F10122CC07826E6FF122CC09E
:101BD4007827E6FF122CC0782DE6FF122CC0782E51
:101BE400E6FF122CC07833E6FF1230D07F1012309B
:101BF400D07826E6FF1230D07827E6FF1230D0786E
:101C04002DE6FF1230D0782EE6FF804A782B76023C
:101C14007828E66052122CBC7F90122CC07F0212EE
:101C24002CC07833E6FF1230D07F901230D07F0280
:101C34008024782B76037828E6602C122CBC7F90C5
:101C4400122CC07F03122CC07833E6FF1230D07FF1
:101C5400901230D07F031230D07830E6FF1230D0AB
:071C6400782FE6FF1230D0DB
:011C6B002256
:1011ED00782976000876011230DAAD07782CE612F0
:1011FD0007A5122400125F0312A20612C00712DE09
:10120D000812FC0913350B13290C13850F13AE109F
:10121D00135511000013F87833E66D6006ED600389
:10122D00F4702A782C7603ED6003F47006E47828C8
:10123D00F6800478287601E47832F6782BF674FF80
:10124D007822F608F6782FF608F60213E5782C7654
:10125D000222EDD3947F748094804006782C76041E
:10126D00801AAF0512304A7832EFF6D3947F74802E
:10127D009480400CE6547FF6782C76051876012282
:10128D00782C76067822E6FE08E6FF782FA606086B
:10129D00A6070213E5EDF8E47927F7E819F7782C9E
:1012AD0076077822E6FE08E6FF782FA60608A60741
:1012BD000213E5ED782726F618E436F6782C760835
:1012CD007822E6FE08E6FF782FA60608A607021389
:1012DD00E5EDF8E4792EF7E819F7782C7609782200
:1012ED00E6FE08E6FF782FA60608A6070213E5ED31
:1012FD00782E26F618E436F67832E6641070081863
:10130D00F6782C76118004782C760C7822E6FE087F
:10131D00E6FF782FA60608A6070213E5ED782476DA
:10132D000008F6782C760B22EDFE7825E426F618CB
:10133D00EE36F67925E71866700419E71866782CED
:10134D007003760E22760D227831EDF6600A782E36
:10135D00E625E07831666008782B76030876122250
:10136D00E47831F6782C760F7822E6FE08E6FF78E1
:10137D002FA60608A6078060EDFE7831E625E0244D
:10138D00EDF582E43401F583EEF0A3E4F0782C76EC
:10139D00107822E6FE08E6FF782FA60608A607803D
:1013AD0037EDFF7831E625E024EDF582E43401F5E3
:1013BD0083E48FF01205C1783106782EE678316618
:1013CD00782C7004760C8002760F7822E6FE08E603
:1013DD00FF782FA60608A607AF05122CC0782FE6BA
:0B13ED00FE08E6FF7822A60608A6070F
:0113F80022D2
:10228F00782CE624FE605F24FD601524F860571457
:10229F00605624FC7003022329240E60030223716D
:1022AF007828E6604174FF782FF608F6122CBC7878
:1022BF0032E62480FF122CC0782BE6FF122CC07858
:1022CF0033E6FF1230D07832E62480FF1230D07818
:1022DF002BE6FF1230D07830E6FF1230D0782FE6A1
:1022EF00FF1230D0807880767832E624FD60142497
:1022FF00FE601514601724F66018240F7017121360
:10230F00F9801212196B800D1220BA80081225BEA7
:10231F008003121AF4E4782CF6227828E6603F74D2
:10232F00FF782FF608F6122CBC7832E62480FF12C5
:10233F002CC0782BE6FF122CC07833E6FF1230D07A
:10234F007832E62480FF1230D0782BE6FF1230D09F
:10235F007830E6FF1230D0782FE6FF1230D0782C8D
:03236F00760122D2
:10002600EC4D6011E8497017ED33EC3304600DE4D4
:10003600FCFFFEFD22E933E8330470F80202761273
:10004600024158046009E4CC248150062850090274
:10005600028028400302027DC0E0EB4A7044B9806A
:1000660006D0E0FB02026CEF4E701CBD8008EBFF71
:10007600EAFEE9FD80EBE98DF0A4FEE5F002010F52
:10008600E9CDF9EAFEEBFFEF89F0A4FCE5F0CE89B5
:10009600F0A42EFFE435F0CD89F0A42DFEE435F072
:1000A6008067EF4E7005BD80D780C3EF8BF0A4ACA0
:1000B600F0EE8BF0A42CFCE435F0F8EF8AF0A42CDB
:1000C600E5F038FCE433CB8DF0A42CFCE5F03BF8EE
:1000D600EE8AF0A42CFCE5F038F8E433CF89F0A4DE
:1000E6002CFCE5F038CF3400CE89F0A42FFFE5F0E4
:1000F6003EFEE433C98DF0A42EFEE5F039CD8AF03C
:10010600A42FFFE5F03EFEE43DFD33D0E0FB5007B3
:100116000BBB000F020280EC2CFCEF33FFEE33FE2C
:06012600ED33FD0202585A
:10012C00020280EC5D046005E8590470030202765B
:10013C00120241580460F6EC4860F2EC7004FDFECB
:10014C00FF22C860DB2481C85009C39860025006A6
:10015C0002027D9850CAF582E9294B4A7005AB82A0
:10016C0002026C75F0007C1A7880C3EF9BEE9AED5E
:10017C0099400DC3EF9BFFEE9AFEED99FDE842F01E
:10018C00DC23ACF0D0E0FFD0E0FED0E0FDAB822071
:10019C00E7101BEB60BAEC2CFCEF33FFEE33FEEDFB
:1001AC0033FD020258E803F830E705C0F075F000A3
:1001BC00EF2FFFEE33FEED33FD40B830E7C280AADF
:1001CC0075F020800E75F010800575F0087D007EAE
:1001DC00007F003392D530D503120729EC33401041
:1001EC00EF33FFEE33FEED33FDEC33FCD5F0ED22B7
:0E01FC00E5F0247EA2D513CC92E7CDCEFF22F3
:10020A00EDD2E7CD33EC3392D524814006E4FFFEEC
:10021A00FDFC22FCE4CFCECDCC24E0501174FF804B
:10022A00EDC3CC13CCCD13CDCE13CECF13CF0470E8
:07023A00F030D5DE020729B8
:102D020090013DE0FFA3E0FEA3E0CF900146F0A3D7
:102D1200EEF0A3EFF0900140E0CBF0A3E0CAF0A305
:102D2200E0C9F07F22900149AD82AC831205358D56
:102D3200828C83F0A309E970010ADFEC900140E084
:0A2D4200FBA3E0FAA3E0F902085D2C
:10024100E9D2E7C933E833F892D5EDD2E7CD33EC03
:0702510033FC5002B2D5227C
:10025800EC30E7100FBF000C0EBE00080DBD000407
:100268000BEB6014A2D5EB13FCED92E7FD2274FFB3
:10027800FCFDFEFF22E480F8A2D574FF13FC7D800C
:03028800E480EF20
:1007F800E5082446F582E43401F583E005082290F3
:100808000143300703900146E475F00112078502A1
:1008180005352000E97F2ED2008018EF540F249070
:10082800D43440D4FF30040BEF24BFB41A00500373
:100838002461FFE50960021509050CE50C70020545
:100848000B30070E900143E475F001120785EF02A3
:10085800057B022F8E7403D2078003E4C207F508D4
:1008680090014312079CE4F509F50BF50CE50960C6
:10087800077F2012083B80F5750AFFC201C200C23B
:1008880002C203C205C206C208120807FF700D3073
:1008980007057F0012084CAF0CAE0B22B4255FC2CF
:1008A800D5C204120807FF24D0B40A00501A75F004
:1008B8000A780930D50508B6FF0106C6A426F62031
:1008C800D5047002D20380D924CFB41A00EF5004A3
:1008D800C2E5D204020B3ED20180C6D20080C0D24B
:1008E8000280BCD2D580BAD20580B47F2012083BE2
:1008F8002002077401B5090040F11207F8FF120839
:100908003B020875D208D20680951207F8FB120739
:10091800F8FA1207F8F94A4B7006793C7A0C7BFF13
:1009280020022EE509602A7E008E8275830012055A
:100938004E60060EEE650A70F0C2D5EBC0E0EAC064
:10094800E0E9C0E0EE120B9FD0E0F9D0E0FAD0E089
:10095800FB120535FF60AAEBC0E0EAC0E0E9C0E0A1
:1009680012083BD0E02401F9D0E03400FAD0E0FBD3
:10097800E50A0460DCD50AD98087D20280A2120B6E
:100988008160F7E50A70010412028BA90A600DE57F
:100998000A600914F50A120C29EF60F3EA30E7023D
:1009A800F404C3995079EAF4250A0430E701E40411
:1009B800F50A800D120B8160C1EA050A250A1202A8
:1009C8008BEA900172F030E701E4250A04D50A04A5
:1009D80020050114120B9FE4C0E0120C299001724B
:1009E800E0601320E70714F0120823802204F0D0F7
:1009F800E014C0E07F00120823E50A600712081A15
:100A0800150A800B30050312081AD0E0020875D0C9
:100A1800E00480C4120B81609EE50A0412028B90E8
:100A28000172EAF0E50A2005026001042404120BB1
:010A38009F1E
:100A390074FF04C0E0120C29120823E50A200502FC
:100A4900600312081AD0E0B50AE87F4512082D9014
:100A59000172E07F2B30E7047F2DF404C0E0120817
:100A69003BD0E075F00A84C0F0120824D0E01208E7
:100A790024020875791080027908C206C208800824
:100A8900D2D5790A8004790AC2D5E50A047002F53B
:100A99000AE4FAFDFEFF1207F8FC7B082001131295
:100AA90007F8FD7B1030000A1207F8FE1207F8FF5D
:100AB9007B20EC3382D592D55013C3E43000069FD6
:100AC900FFE49EFEE42001039DFDE49CFCE4CBF8D9
:100AD900C201EC700CCFCECDCCE824F8F870F380CD
:100AE90017C3EF33FFEE33FEED33FDEC33FCEB338D
:100AF900FB994002FB0FD8E9EB300105F8D0E0C4BF
:100B090048B201C0E00AEC4D4E4F78207B0070C21C
:100B1900EAB50A0040BCC0E0120BA1D0F0D0E02039
:100B29000104C4C0E0C4B201C0F0120824D0F0D559
:100B3900F0EB0208751207A50912530A7D5808E35C
:100B49004C08DF420A814F0A89440A894908F84357
:100B59000A8F5509BC460A1C450986470C5C500892
:100B6900E72D08EB2E090E2B08EF23090C200C4565
:100B79002A08A74800000906E50AB4FF03750A0612
:100B89001207F8FC1207F8FD1207F8FE1207F8FF22
:100B990090016B0202C8790AA2D520031430050915
:100BA900B910020404B9080104A2D52006025001B3
:100BB900042002689202B509005034C0E07F203059
:100BC90003197F30A20272067205500F120BF8C288
:100BD90002C206C205C2087F30800F300503E9C092
:100BE900E012083B300503D0E0F9D0E0B509CC307C
:100BF90005177F30B9100C12083B7F583004077F66
:100C0900788003B9080312083B3002057F2D0208DA
:100C19003B7F202008F87F2B2006F322920280CF09
:100C29007F00B40700500B246BF582E43401F5838F
:100C3900E0FF22286E756C6C2900D2011207F8308A
:100C490001F8C201780930D50108F60208A72D502C
:100C59004349581207F82403B405004001E4900CF5
:100C6900579312082C743A12082CD20375090402FE
:020C79000A7DF2
:10028B00F920E73624F950037907E4F42402FBE55F
:10029B0082158270021583DBF6E024FB501BE960AC
:1002AB0014E4F0E582158270021583E004F0B40AC1
:0D02BB0008E4F0D9EE7401F00A22C2D52249
:1002C800ED33EC3392D5FA602AB4FF33EDC2E77B05
:1002D800FF60067A0279EDE4227A0279F620D504E5
:1002E8007A0279F1224E614E002B494E46002D4983
:1002F8004E4600E47A08F0A3DAFC7B00740722C0BB
:1003080083C082ECC0E0EDC0E0EEC0E0EFC0E0EA00
:1003180075F010A4CAABF075F04DA42BFBE435F0D2
:10032800FCEA2410FAEB34C5FBEC34D9FCEDC2E747
:10033800FF75F056A4F42411C5F0F434C58FF0A469
:100348002AE5F03BE43CF020E7141204F5D0E0FF86
:10035800D0E0FED0E0FDD0E0FC12012F8014F404C0
:100368001204F5D0E0FFD0E0FED0E0FDD0E0FC12B2
:100378000026D082D083E0FAEDD2E7CD33EC3324E7
:1003880082FBE4C3CF33CFCE33CECD33CD33DBF3D3
:100398007B0775F00A846004F0A31B0AE5F0F0A35C
:1003A8008FF0740AA4FFACF08EF0740AA42CFEAC93
:1003B800F050010C8DF0740AA42CFDE435F0F0A384
:0503C800DBDE740722DA
:1003CD00020276E86480F8E933E83360110460F0E6
:1003DD00ED33EC337009E8FCE9FDEAFEEBFF220496
:1003ED0060DED3EB9FEA9EE99DE8C2E78CF0C2F791
:1003FD0095F0400CE8CCF8E9CDF9EACEFAEBCFFB5D
:10040D0012024185D0F05804700320D5B3E8047072
:10041D00075002B2D502028092D5EC0460F7E4CC0D
:10042D00C0E0C398F8603B94186008400DD0E0FB25
:10043D00020258E4FBFAC9FC8028E830E406E4C95E
:10044D00FBE4CAFCE830E305E4C9CACBFCE8540779
:10045D006010F8C3E913F9EA13FAEB13FBEC13FC84
:10046D00D8F130F52FC3E49CFCEF9BFFEE9AFEED27
:10047D0099FDD0E0FBEF4E4D4C701222DB030202D2
:10048D007DEC2CFCEF33FFEE33FEED33FDED30E76D
:10049D00EB020258EF2BFFEE3AFEED39FDD0E0FBFB
:1004AD0050130BBB0003020280ED13FDEE13FEEFA4
:0804BD0013FFEC13FC020258CE
:1004C5003F8000004120000042C80000447A00003F
:1004D500461C400047C35000497424004B189680C1
:1004E5004CBEBC205A0E1BCA6753C21C749DC5AEB8
:1004F500FB60065407601C2323120523EB54386068
:100505000912050F12051E120026ECF8EDF9EEFA98
:10051500EFCB22EB12051E80F1543803241C900406
:10052500C5FE93FC0EEE93FD0EEE930ECE93FF22C9
:102901000230A6E493A3F8E493A34003F68001F216
:1029110008DFF48029E493A3F85407240CC8C333D7
:10292100C4540F4420C8834004F456800146F6DFA6
:10293100E4800B0102040810204080902A56E47EB6
:10294100019360BCA3FF543F30E509541FFEE4939B
:10295100A360010ECF54C025E060A840B8E493A362
:10296100FAE493A3F8E493A3C8C582C8CAC583CA8D
:10297100F0A3C8C582C8CAC583CADFE9DEE780BE45
:012AB900001C
:10053500BB010689828A83E0225002E722BBFE02C4
:09054500E32289828A83E49322F7
:10054E00BB010CE58229F582E5833AF583E0225062
:10055E0006E92582F8E622BBFE06E92582F8E222AC
:0D056E00E58229F582E5833AF583E49322C6
:10057B00BB010689828A83F0225002F722BBFE015F
:02058B00F32259
:10058D00F8BB010DE58229F582E5833AF583E8F0A4
:10059D00225006E92582C8F622BBFE05E92582C850
:0205AD00F22238
:1005AF00EF8DF0A4A8F0CF8CF0A428CE8DF0A42E60
:0205BF00FE221A
:1005C100C5F0F8A3E028F0C5F0F8E58215827002C5
:0605D1001583E038F02262
:1005D700A3F8E0C5F025F0F0E582158270021583D7
:0605E700E0C838F0E82234
:1005ED00BB010A89828A83F0E5F0A3F0225006F759
:0F05FD0009A7F01922BBFE06F3E5F009F3192256
:10060C00E88FF0A4CC8BF0A42CFCE98EF0A42CFC8D
:10061C008AF0EDA42CFCEA8EF0A4CDA8F08BF0A40B
:10062C002DCC3825F0FDE98FF0A42CCD35F0FCEB6A
:10063C008EF0A4FEA9F0EB8FF0A4CFC5F02ECD392F
:0F064C00FEE43CFCEAA42DCE35F0FDE43CFC229C
:10065B0075F008758200EF2FFFEE33FECD33CDCC56
:10066B0033CCC58233C5829BED9AEC99E5829840D9
:10067B000CF582EE9BFEED9AFDEC99FC0FD5F0D6B6
:10068B00E4CEFBE4CDFAE4CCF9A88222B800C1B9E0
:10069B000059BA002DEC8BF084CFCECDFCE5F0CB1E
:1006AB00F97818EF2FFFEE33FEED33FDEC33FCEB57
:1006BB0033FB10D703994004EB99FB0FD8E5E4F912
:1006CB00FA227818EF2FFFEE33FEED33FDEC33FCFF
:1006DB00C933C910D7059BE99A4007EC9BFCE99AF3
:1006EB00F90FD8E0E4C9FAE4CCFB2275F010EF2F38
:1006FB00FFEE33FEED33FDCC33CCC833C810D70738
:10070B009BEC9AE899400AED9BFDEC9AFCE899F872
:0E071B000FD5F0DAE4CDFBE4CCFAE4C8F92205
:0E072900C3E49FFFE49EFEE49DFDE49CFC22E1
:10073700EB9FF5F0EA9E42F0E99D42F0E89C45F018
:01074700228F
:0C074800ECF0A3EDF0A3EEF0A3EFF02224
:10075400A8828583F0D083D08212076B12076B12B4
:10076400076B12076BE473E493A3C583C5F0C583D9
:10077400C8C582C8F0A3C583C5F0C583C8C582C8EF
:010784002252
:10078500F8E0FBA3A3E0F925F0F0E58215827002FD
:070795001583E0FA38F022A1
:09079C00EBF0A3EAF0A3E9F0225E
:1007A500D083D082F8E4937012740193700DA3A3E3
:1007B50093F8740193F5828883E4737402936860F7
:0607C500EFA3A3A380DFF7
:1007CB00EC8EF0A4CCC5F0CCCDF8EFA4CEC5F02DBB
:1007DB00FDE43CFCE8A42EC8C5F03DFDE43CFCEF79
:0D07EB00A4FFE5F028FEE43DFDE43CFC2207
:102F8E00EFB40A07740D122F99740A309811A8998C
:102F9E00B8130CC2983098FDA899C298B811F630A3
:072FAE0099FDC299F599227B
:00000001FF
